{
  "_format": "hh-sol-artifact-1",
  "contractName": "VestingWallet",
  "sourceName": "contracts/VestingWallet.sol",
  "abi": [
    {
      "inputs": [
        {
          "internalType": "address",
          "name": "value",
          "type": "address"
        },
        {
          "internalType": "uint64",
          "name": "startTimestamp",
          "type": "uint64"
        },
        {
          "internalType": "uint64",
          "name": "durationSeconds",
          "type": "uint64"
        }
      ],
      "stateMutability": "nonpayable",
      "type": "constructor"
    },
    {
      "anonymous": false,
      "inputs": [
        {
          "indexed": true,
          "internalType": "address",
          "name": "token",
          "type": "address"
        },
        {
          "indexed": false,
          "internalType": "uint256",
          "name": "amount",
          "type": "uint256"
        }
      ],
      "name": "ERC20Released",
      "type": "event"
    },
    {
      "anonymous": false,
      "inputs": [
        {
          "indexed": false,
          "internalType": "uint256",
          "name": "amount",
          "type": "uint256"
        }
      ],
      "name": "EtherReleased",
      "type": "event"
    },
    {
      "anonymous": false,
      "inputs": [
        {
          "indexed": true,
          "internalType": "address",
          "name": "previousOwner",
          "type": "address"
        },
        {
          "indexed": true,
          "internalType": "address",
          "name": "newOwner",
          "type": "address"
        }
      ],
      "name": "OwnershipTransferred",
      "type": "event"
    },
    {
      "anonymous": false,
      "inputs": [
        {
          "indexed": false,
          "internalType": "address",
          "name": "newValue",
          "type": "address"
        }
      ],
      "name": "ValueChanged",
      "type": "event"
    },
    {
      "inputs": [],
      "name": "beneficiary",
      "outputs": [
        {
          "internalType": "address",
          "name": "",
          "type": "address"
        }
      ],
      "stateMutability": "view",
      "type": "function"
    },
    {
      "inputs": [],
      "name": "duration",
      "outputs": [
        {
          "internalType": "uint256",
          "name": "",
          "type": "uint256"
        }
      ],
      "stateMutability": "view",
      "type": "function"
    },
    {
      "inputs": [],
      "name": "owner",
      "outputs": [
        {
          "internalType": "address",
          "name": "",
          "type": "address"
        }
      ],
      "stateMutability": "view",
      "type": "function"
    },
    {
      "inputs": [
        {
          "internalType": "address",
          "name": "token",
          "type": "address"
        }
      ],
      "name": "release",
      "outputs": [],
      "stateMutability": "nonpayable",
      "type": "function"
    },
    {
      "inputs": [],
      "name": "release",
      "outputs": [],
      "stateMutability": "nonpayable",
      "type": "function"
    },
    {
      "inputs": [],
      "name": "released",
      "outputs": [
        {
          "internalType": "uint256",
          "name": "",
          "type": "uint256"
        }
      ],
      "stateMutability": "view",
      "type": "function"
    },
    {
      "inputs": [
        {
          "internalType": "address",
          "name": "token",
          "type": "address"
        }
      ],
      "name": "released",
      "outputs": [
        {
          "internalType": "uint256",
          "name": "",
          "type": "uint256"
        }
      ],
      "stateMutability": "view",
      "type": "function"
    },
    {
      "inputs": [],
      "name": "renounceOwnership",
      "outputs": [],
      "stateMutability": "nonpayable",
      "type": "function"
    },
    {
      "inputs": [],
      "name": "start",
      "outputs": [
        {
          "internalType": "uint256",
          "name": "",
          "type": "uint256"
        }
      ],
      "stateMutability": "view",
      "type": "function"
    },
    {
      "inputs": [
        {
          "internalType": "address",
          "name": "newValue",
          "type": "address"
        }
      ],
      "name": "store",
      "outputs": [],
      "stateMutability": "nonpayable",
      "type": "function"
    },
    {
      "inputs": [
        {
          "internalType": "address",
          "name": "newOwner",
          "type": "address"
        }
      ],
      "name": "transferOwnership",
      "outputs": [],
      "stateMutability": "nonpayable",
      "type": "function"
    },
    {
      "inputs": [
        {
          "internalType": "uint64",
          "name": "timestamp",
          "type": "uint64"
        }
      ],
      "name": "vestedAmount",
      "outputs": [
        {
          "internalType": "uint256",
          "name": "",
          "type": "uint256"
        }
      ],
      "stateMutability": "view",
      "type": "function"
    },
    {
      "inputs": [
        {
          "internalType": "address",
          "name": "token",
          "type": "address"
        },
        {
          "internalType": "uint64",
          "name": "timestamp",
          "type": "uint64"
        }
      ],
      "name": "vestedAmount",
      "outputs": [
        {
          "internalType": "uint256",
          "name": "",
          "type": "uint256"
        }
      ],
      "stateMutability": "view",
      "type": "function"
    },
    {
      "stateMutability": "payable",
      "type": "receive"
    }
  ],
  "bytecode": "0x60c06040523480156200001157600080fd5b5060405162001a2738038062001a278339818101604052810190620000379190620002c6565b620000576200004b6200014b60201b60201c565b6200015360201b60201c565b600073ffffffffffffffffffffffffffffffffffffffff168373ffffffffffffffffffffffffffffffffffffffff1603620000c9576040517f08c379a0000000000000000000000000000000000000000000000000000000008152600401620000c090620003a9565b60405180910390fd5b82600360006101000a81548173ffffffffffffffffffffffffffffffffffffffff021916908373ffffffffffffffffffffffffffffffffffffffff1602179055508167ffffffffffffffff1660808167ffffffffffffffff16815250508067ffffffffffffffff1660a08167ffffffffffffffff1681525050505050620003cb565b600033905090565b60008060009054906101000a900473ffffffffffffffffffffffffffffffffffffffff169050816000806101000a81548173ffffffffffffffffffffffffffffffffffffffff021916908373ffffffffffffffffffffffffffffffffffffffff1602179055508173ffffffffffffffffffffffffffffffffffffffff168173ffffffffffffffffffffffffffffffffffffffff167f8be0079c531659141344cd1fd0a4f28419497f9722a3daafe3b4186f6b6457e060405160405180910390a35050565b600080fd5b600073ffffffffffffffffffffffffffffffffffffffff82169050919050565b600062000249826200021c565b9050919050565b6200025b816200023c565b81146200026757600080fd5b50565b6000815190506200027b8162000250565b92915050565b600067ffffffffffffffff82169050919050565b620002a08162000281565b8114620002ac57600080fd5b50565b600081519050620002c08162000295565b92915050565b600080600060608486031215620002e257620002e162000217565b5b6000620002f2868287016200026a565b93505060206200030586828701620002af565b92505060406200031886828701620002af565b9150509250925092565b600082825260208201905092915050565b7f56657374696e6757616c6c65743a2062656e6566696369617279206973207a6560008201527f726f206164647265737300000000000000000000000000000000000000000000602082015250565b600062000391602a8362000322565b91506200039e8262000333565b604082019050919050565b60006020820190508181036000830152620003c48162000382565b9050919050565b60805160a051611636620003f160003960006103320152600061069f01526116366000f3fe6080604052600436106100c65760003560e01c806386d1a69f1161007f5780639852595c116100595780639852595c1461024f5780639e39db731461028c578063be9a6555146102b5578063f2fde38b146102e0576100cd565b806386d1a69f146101e25780638da5cb5b146101f95780639613252114610224576100cd565b80630a17b06b146100d25780630fb5a6b41461010f578063191655871461013a57806338af3eed14610163578063715018a61461018e578063810ec23b146101a5576100cd565b366100cd57005b600080fd5b3480156100de57600080fd5b506100f960048036038101906100f49190610d70565b610309565b6040516101069190610db6565b60405180910390f35b34801561011b57600080fd5b5061012461032e565b6040516101319190610db6565b60405180910390f35b34801561014657600080fd5b50610161600480360381019061015c9190610e2f565b610360565b005b34801561016f57600080fd5b5061017861043b565b6040516101859190610e6b565b60405180910390f35b34801561019a57600080fd5b506101a3610465565b005b3480156101b157600080fd5b506101cc60048036038101906101c79190610e86565b610479565b6040516101d99190610db6565b60405180910390f35b3480156101ee57600080fd5b506101f7610519565b005b34801561020557600080fd5b5061020e61059c565b60405161021b9190610e6b565b60405180910390f35b34801561023057600080fd5b506102396105c5565b6040516102469190610db6565b60405180910390f35b34801561025b57600080fd5b5061027660048036038101906102719190610e2f565b6105cf565b6040516102839190610db6565b60405180910390f35b34801561029857600080fd5b506102b360048036038101906102ae9190610e2f565b610618565b005b3480156102c157600080fd5b506102ca61069b565b6040516102d79190610db6565b60405180910390f35b3480156102ec57600080fd5b5061030760048036038101906103029190610e2f565b6106cd565b005b60006103276103166105c5565b476103219190610ef5565b83610750565b9050919050565b60007f000000000000000000000000000000000000000000000000000000000000000067ffffffffffffffff16905090565b600061036b826105cf565b6103758342610479565b61037f9190610f4b565b905080600260008473ffffffffffffffffffffffffffffffffffffffff1673ffffffffffffffffffffffffffffffffffffffff16815260200190815260200160002060008282546103d09190610ef5565b925050819055508173ffffffffffffffffffffffffffffffffffffffff167fc0e523490dd523c33b1878c9eb14ff46991e3f5b2cd33710918618f2a39cba1b8260405161041d9190610db6565b60405180910390a26104378261043161043b565b836107ea565b5050565b6000600360009054906101000a900473ffffffffffffffffffffffffffffffffffffffff16905090565b61046d610870565b61047760006108ee565b565b6000610511610487846105cf565b8473ffffffffffffffffffffffffffffffffffffffff166370a08231306040518263ffffffff1660e01b81526004016104c09190610e6b565b602060405180830381865afa1580156104dd573d6000803e3d6000fd5b505050506040513d601f19601f820116820180604052508101906105019190610fab565b61050b9190610ef5565b83610750565b905092915050565b60006105236105c5565b61052c42610309565b6105369190610f4b565b9050806001600082825461054a9190610ef5565b925050819055507fda9d4e5f101b8b9b1c5b76d0c5a9f7923571acfc02376aa076b75a8c080c956b816040516105809190610db6565b60405180910390a161059961059361043b565b826109b2565b50565b60008060009054906101000a900473ffffffffffffffffffffffffffffffffffffffff16905090565b6000600154905090565b6000600260008373ffffffffffffffffffffffffffffffffffffffff1673ffffffffffffffffffffffffffffffffffffffff168152602001908152602001600020549050919050565b610620610870565b80600360006101000a81548173ffffffffffffffffffffffffffffffffffffffff021916908373ffffffffffffffffffffffffffffffffffffffff1602179055507fd6d5480ae56e3e610727c722ff8037d5ddcbb51a4fe503624ba479ff0c182f7d816040516106909190610e6b565b60405180910390a150565b60007f000000000000000000000000000000000000000000000000000000000000000067ffffffffffffffff16905090565b6106d5610870565b600073ffffffffffffffffffffffffffffffffffffffff168173ffffffffffffffffffffffffffffffffffffffff1603610744576040517f08c379a000000000000000000000000000000000000000000000000000000000815260040161073b9061105b565b60405180910390fd5b61074d816108ee565b50565b600061075a61069b565b8267ffffffffffffffff16101561077457600090506107e4565b61077c61032e565b61078461069b565b61078e9190610ef5565b8267ffffffffffffffff1611156107a7578290506107e4565b6107af61032e565b6107b761069b565b8367ffffffffffffffff166107cc9190610f4b565b846107d7919061107b565b6107e19190611104565b90505b92915050565b61086b8363a9059cbb60e01b8484604051602401610809929190611135565b604051602081830303815290604052907bffffffffffffffffffffffffffffffffffffffffffffffffffffffff19166020820180517bffffffffffffffffffffffffffffffffffffffffffffffffffffffff8381831617835250505050610aa6565b505050565b610878610b6d565b73ffffffffffffffffffffffffffffffffffffffff1661089661059c565b73ffffffffffffffffffffffffffffffffffffffff16146108ec576040517f08c379a00000000000000000000000000000000000000000000000000000000081526004016108e3906111aa565b60405180910390fd5b565b60008060009054906101000a900473ffffffffffffffffffffffffffffffffffffffff169050816000806101000a81548173ffffffffffffffffffffffffffffffffffffffff021916908373ffffffffffffffffffffffffffffffffffffffff1602179055508173ffffffffffffffffffffffffffffffffffffffff168173ffffffffffffffffffffffffffffffffffffffff167f8be0079c531659141344cd1fd0a4f28419497f9722a3daafe3b4186f6b6457e060405160405180910390a35050565b804710156109f5576040517f08c379a00000000000000000000000000000000000000000000000000000000081526004016109ec90611216565b60405180910390fd5b60008273ffffffffffffffffffffffffffffffffffffffff1682604051610a1b90611267565b60006040518083038185875af1925050503d8060008114610a58576040519150601f19603f3d011682016040523d82523d6000602084013e610a5d565b606091505b5050905080610aa1576040517f08c379a0000000000000000000000000000000000000000000000000000000008152600401610a98906112ee565b60405180910390fd5b505050565b6000610b08826040518060400160405280602081526020017f5361666545524332303a206c6f772d6c6576656c2063616c6c206661696c65648152508573ffffffffffffffffffffffffffffffffffffffff16610b759092919063ffffffff16565b9050600081511115610b685780806020019051810190610b289190611346565b610b67576040517f08c379a0000000000000000000000000000000000000000000000000000000008152600401610b5e906113e5565b60405180910390fd5b5b505050565b600033905090565b6060610b848484600085610b8d565b90509392505050565b606082471015610bd2576040517f08c379a0000000000000000000000000000000000000000000000000000000008152600401610bc990611477565b60405180910390fd5b610bdb85610ca1565b610c1a576040517f08c379a0000000000000000000000000000000000000000000000000000000008152600401610c11906114e3565b60405180910390fd5b6000808673ffffffffffffffffffffffffffffffffffffffff168587604051610c439190611572565b60006040518083038185875af1925050503d8060008114610c80576040519150601f19603f3d011682016040523d82523d6000602084013e610c85565b606091505b5091509150610c95828286610cc4565b92505050949350505050565b6000808273ffffffffffffffffffffffffffffffffffffffff163b119050919050565b60608315610cd457829050610d24565b600083511115610ce75782518084602001fd5b816040517f08c379a0000000000000000000000000000000000000000000000000000000008152600401610d1b91906115de565b60405180910390fd5b9392505050565b600080fd5b600067ffffffffffffffff82169050919050565b610d4d81610d30565b8114610d5857600080fd5b50565b600081359050610d6a81610d44565b92915050565b600060208284031215610d8657610d85610d2b565b5b6000610d9484828501610d5b565b91505092915050565b6000819050919050565b610db081610d9d565b82525050565b6000602082019050610dcb6000830184610da7565b92915050565b600073ffffffffffffffffffffffffffffffffffffffff82169050919050565b6000610dfc82610dd1565b9050919050565b610e0c81610df1565b8114610e1757600080fd5b50565b600081359050610e2981610e03565b92915050565b600060208284031215610e4557610e44610d2b565b5b6000610e5384828501610e1a565b91505092915050565b610e6581610df1565b82525050565b6000602082019050610e806000830184610e5c565b92915050565b60008060408385031215610e9d57610e9c610d2b565b5b6000610eab85828601610e1a565b9250506020610ebc85828601610d5b565b9150509250929050565b7f4e487b7100000000000000000000000000000000000000000000000000000000600052601160045260246000fd5b6000610f0082610d9d565b9150610f0b83610d9d565b9250827fffffffffffffffffffffffffffffffffffffffffffffffffffffffffffffffff03821115610f4057610f3f610ec6565b5b828201905092915050565b6000610f5682610d9d565b9150610f6183610d9d565b925082821015610f7457610f73610ec6565b5b828203905092915050565b610f8881610d9d565b8114610f9357600080fd5b50565b600081519050610fa581610f7f565b92915050565b600060208284031215610fc157610fc0610d2b565b5b6000610fcf84828501610f96565b91505092915050565b600082825260208201905092915050565b7f4f776e61626c653a206e6577206f776e657220697320746865207a65726f206160008201527f6464726573730000000000000000000000000000000000000000000000000000602082015250565b6000611045602683610fd8565b915061105082610fe9565b604082019050919050565b6000602082019050818103600083015261107481611038565b9050919050565b600061108682610d9d565b915061109183610d9d565b9250817fffffffffffffffffffffffffffffffffffffffffffffffffffffffffffffffff04831182151516156110ca576110c9610ec6565b5b828202905092915050565b7f4e487b7100000000000000000000000000000000000000000000000000000000600052601260045260246000fd5b600061110f82610d9d565b915061111a83610d9d565b92508261112a576111296110d5565b5b828204905092915050565b600060408201905061114a6000830185610e5c565b6111576020830184610da7565b9392505050565b7f4f776e61626c653a2063616c6c6572206973206e6f7420746865206f776e6572600082015250565b6000611194602083610fd8565b915061119f8261115e565b602082019050919050565b600060208201905081810360008301526111c381611187565b9050919050565b7f416464726573733a20696e73756666696369656e742062616c616e6365000000600082015250565b6000611200601d83610fd8565b915061120b826111ca565b602082019050919050565b6000602082019050818103600083015261122f816111f3565b9050919050565b600081905092915050565b50565b6000611251600083611236565b915061125c82611241565b600082019050919050565b600061127282611244565b9150819050919050565b7f416464726573733a20756e61626c6520746f2073656e642076616c75652c207260008201527f6563697069656e74206d61792068617665207265766572746564000000000000602082015250565b60006112d8603a83610fd8565b91506112e38261127c565b604082019050919050565b60006020820190508181036000830152611307816112cb565b9050919050565b60008115159050919050565b6113238161130e565b811461132e57600080fd5b50565b6000815190506113408161131a565b92915050565b60006020828403121561135c5761135b610d2b565b5b600061136a84828501611331565b91505092915050565b7f5361666545524332303a204552433230206f7065726174696f6e20646964206e60008201527f6f74207375636365656400000000000000000000000000000000000000000000602082015250565b60006113cf602a83610fd8565b91506113da82611373565b604082019050919050565b600060208201905081810360008301526113fe816113c2565b9050919050565b7f416464726573733a20696e73756666696369656e742062616c616e636520666f60008201527f722063616c6c0000000000000000000000000000000000000000000000000000602082015250565b6000611461602683610fd8565b915061146c82611405565b604082019050919050565b6000602082019050818103600083015261149081611454565b9050919050565b7f416464726573733a2063616c6c20746f206e6f6e2d636f6e7472616374000000600082015250565b60006114cd601d83610fd8565b91506114d882611497565b602082019050919050565b600060208201905081810360008301526114fc816114c0565b9050919050565b600081519050919050565b60005b8381101561152c578082015181840152602081019050611511565b8381111561153b576000848401525b50505050565b600061154c82611503565b6115568185611236565b935061156681856020860161150e565b80840191505092915050565b600061157e8284611541565b915081905092915050565b600081519050919050565b6000601f19601f8301169050919050565b60006115b082611589565b6115ba8185610fd8565b93506115ca81856020860161150e565b6115d381611594565b840191505092915050565b600060208201905081810360008301526115f881846115a5565b90509291505056fea264697066735822122001b7af8c62e55a0cda20e8ad17e6fd10bc55ea46a1e727e7bdb42bfc846b7f4f64736f6c634300080f0033",
  "linkReferences": {},
  "deployedLinkReferences": {}
}