{
  "_format": "hh-sol-artifact-1",
  "contractName": "RpcpRaton",
  "sourceName": "contracts/RpcpRaton.sol",
  "abi": [
    {
      "inputs": [
        {
          "internalType": "string",
          "name": "_theBaseURI",
          "type": "string"
        },
        {
          "internalType": "address",
          "name": "_tokenAddress",
          "type": "address"
        }
      ],
      "stateMutability": "nonpayable",
      "type": "constructor"
    },
    {
      "inputs": [],
      "name": "ApprovalCallerNotOwnerNorApproved",
      "type": "error"
    },
    {
      "inputs": [],
      "name": "ApprovalQueryForNonexistentToken",
      "type": "error"
    },
    {
      "inputs": [],
      "name": "ApproveToCaller",
      "type": "error"
    },
    {
      "inputs": [],
      "name": "BalanceQueryForZeroAddress",
      "type": "error"
    },
    {
      "inputs": [],
      "name": "MintERC2309QuantityExceedsLimit",
      "type": "error"
    },
    {
      "inputs": [],
      "name": "MintToZeroAddress",
      "type": "error"
    },
    {
      "inputs": [],
      "name": "MintZeroQuantity",
      "type": "error"
    },
    {
      "inputs": [],
      "name": "OwnerQueryForNonexistentToken",
      "type": "error"
    },
    {
      "inputs": [],
      "name": "OwnershipNotInitializedForExtraData",
      "type": "error"
    },
    {
      "inputs": [],
      "name": "TransferCallerNotOwnerNorApproved",
      "type": "error"
    },
    {
      "inputs": [],
      "name": "TransferFromIncorrectOwner",
      "type": "error"
    },
    {
      "inputs": [],
      "name": "TransferToNonERC721ReceiverImplementer",
      "type": "error"
    },
    {
      "inputs": [],
      "name": "TransferToZeroAddress",
      "type": "error"
    },
    {
      "inputs": [],
      "name": "URIQueryForNonexistentToken",
      "type": "error"
    },
    {
      "anonymous": false,
      "inputs": [
        {
          "indexed": true,
          "internalType": "address",
          "name": "owner",
          "type": "address"
        },
        {
          "indexed": true,
          "internalType": "address",
          "name": "approved",
          "type": "address"
        },
        {
          "indexed": true,
          "internalType": "uint256",
          "name": "tokenId",
          "type": "uint256"
        }
      ],
      "name": "Approval",
      "type": "event"
    },
    {
      "anonymous": false,
      "inputs": [
        {
          "indexed": true,
          "internalType": "address",
          "name": "owner",
          "type": "address"
        },
        {
          "indexed": true,
          "internalType": "address",
          "name": "operator",
          "type": "address"
        },
        {
          "indexed": false,
          "internalType": "bool",
          "name": "approved",
          "type": "bool"
        }
      ],
      "name": "ApprovalForAll",
      "type": "event"
    },
    {
      "anonymous": false,
      "inputs": [
        {
          "indexed": true,
          "internalType": "address",
          "name": "buyer",
          "type": "address"
        },
        {
          "indexed": true,
          "internalType": "uint256",
          "name": "amount",
          "type": "uint256"
        }
      ],
      "name": "CommissionWithdraw",
      "type": "event"
    },
    {
      "anonymous": false,
      "inputs": [
        {
          "indexed": true,
          "internalType": "uint256",
          "name": "fromTokenId",
          "type": "uint256"
        },
        {
          "indexed": false,
          "internalType": "uint256",
          "name": "toTokenId",
          "type": "uint256"
        },
        {
          "indexed": true,
          "internalType": "address",
          "name": "from",
          "type": "address"
        },
        {
          "indexed": true,
          "internalType": "address",
          "name": "to",
          "type": "address"
        }
      ],
      "name": "ConsecutiveTransfer",
      "type": "event"
    },
    {
      "anonymous": false,
      "inputs": [
        {
          "indexed": true,
          "internalType": "contract IERC20",
          "name": "token",
          "type": "address"
        },
        {
          "indexed": false,
          "internalType": "address",
          "name": "to",
          "type": "address"
        },
        {
          "indexed": false,
          "internalType": "uint256",
          "name": "amount",
          "type": "uint256"
        }
      ],
      "name": "ERC20PaymentReleased",
      "type": "event"
    },
    {
      "anonymous": false,
      "inputs": [
        {
          "indexed": true,
          "internalType": "address",
          "name": "previousOwner",
          "type": "address"
        },
        {
          "indexed": true,
          "internalType": "address",
          "name": "newOwner",
          "type": "address"
        }
      ],
      "name": "OwnershipTransferred",
      "type": "event"
    },
    {
      "anonymous": false,
      "inputs": [
        {
          "indexed": false,
          "internalType": "address",
          "name": "account",
          "type": "address"
        },
        {
          "indexed": false,
          "internalType": "uint256",
          "name": "shares",
          "type": "uint256"
        }
      ],
      "name": "PayeeAdded",
      "type": "event"
    },
    {
      "anonymous": false,
      "inputs": [
        {
          "indexed": false,
          "internalType": "address",
          "name": "from",
          "type": "address"
        },
        {
          "indexed": false,
          "internalType": "uint256",
          "name": "amount",
          "type": "uint256"
        }
      ],
      "name": "PaymentReceived",
      "type": "event"
    },
    {
      "anonymous": false,
      "inputs": [
        {
          "indexed": false,
          "internalType": "address",
          "name": "to",
          "type": "address"
        },
        {
          "indexed": false,
          "internalType": "uint256",
          "name": "amount",
          "type": "uint256"
        }
      ],
      "name": "PaymentReleased",
      "type": "event"
    },
    {
      "anonymous": false,
      "inputs": [
        {
          "indexed": true,
          "internalType": "address",
          "name": "from",
          "type": "address"
        },
        {
          "indexed": true,
          "internalType": "address",
          "name": "to",
          "type": "address"
        },
        {
          "indexed": true,
          "internalType": "uint256",
          "name": "tokenId",
          "type": "uint256"
        }
      ],
      "name": "Transfer",
      "type": "event"
    },
    {
      "inputs": [
        {
          "internalType": "address",
          "name": "to",
          "type": "address"
        },
        {
          "internalType": "uint256",
          "name": "tokenId",
          "type": "uint256"
        }
      ],
      "name": "approve",
      "outputs": [],
      "stateMutability": "nonpayable",
      "type": "function"
    },
    {
      "inputs": [
        {
          "internalType": "address",
          "name": "owner",
          "type": "address"
        }
      ],
      "name": "balanceOf",
      "outputs": [
        {
          "internalType": "uint256",
          "name": "",
          "type": "uint256"
        }
      ],
      "stateMutability": "view",
      "type": "function"
    },
    {
      "inputs": [],
      "name": "baseExtension",
      "outputs": [
        {
          "internalType": "string",
          "name": "",
          "type": "string"
        }
      ],
      "stateMutability": "view",
      "type": "function"
    },
    {
      "inputs": [
        {
          "internalType": "uint256",
          "name": "_maxMintAllowed",
          "type": "uint256"
        }
      ],
      "name": "changeMaxMintAllowed",
      "outputs": [],
      "stateMutability": "nonpayable",
      "type": "function"
    },
    {
      "inputs": [
        {
          "internalType": "uint256",
          "name": "_priceRaton",
          "type": "uint256"
        }
      ],
      "name": "changePriceRaton",
      "outputs": [],
      "stateMutability": "nonpayable",
      "type": "function"
    },
    {
      "inputs": [
        {
          "internalType": "uint256",
          "name": "amount",
          "type": "uint256"
        }
      ],
      "name": "deposit",
      "outputs": [],
      "stateMutability": "nonpayable",
      "type": "function"
    },
    {
      "inputs": [
        {
          "internalType": "uint256",
          "name": "tokenId",
          "type": "uint256"
        }
      ],
      "name": "getApproved",
      "outputs": [
        {
          "internalType": "address",
          "name": "",
          "type": "address"
        }
      ],
      "stateMutability": "view",
      "type": "function"
    },
    {
      "inputs": [
        {
          "internalType": "address",
          "name": "owner",
          "type": "address"
        },
        {
          "internalType": "address",
          "name": "operator",
          "type": "address"
        }
      ],
      "name": "isApprovedForAll",
      "outputs": [
        {
          "internalType": "bool",
          "name": "",
          "type": "bool"
        }
      ],
      "stateMutability": "view",
      "type": "function"
    },
    {
      "inputs": [],
      "name": "max_mint_allowed",
      "outputs": [
        {
          "internalType": "uint256",
          "name": "",
          "type": "uint256"
        }
      ],
      "stateMutability": "view",
      "type": "function"
    },
    {
      "inputs": [],
      "name": "name",
      "outputs": [
        {
          "internalType": "string",
          "name": "",
          "type": "string"
        }
      ],
      "stateMutability": "view",
      "type": "function"
    },
    {
      "inputs": [],
      "name": "owner",
      "outputs": [
        {
          "internalType": "address",
          "name": "",
          "type": "address"
        }
      ],
      "stateMutability": "view",
      "type": "function"
    },
    {
      "inputs": [
        {
          "internalType": "uint256",
          "name": "tokenId",
          "type": "uint256"
        }
      ],
      "name": "ownerOf",
      "outputs": [
        {
          "internalType": "address",
          "name": "",
          "type": "address"
        }
      ],
      "stateMutability": "view",
      "type": "function"
    },
    {
      "inputs": [
        {
          "internalType": "uint256",
          "name": "index",
          "type": "uint256"
        }
      ],
      "name": "payee",
      "outputs": [
        {
          "internalType": "address",
          "name": "",
          "type": "address"
        }
      ],
      "stateMutability": "view",
      "type": "function"
    },
    {
      "inputs": [],
      "name": "priceRaton",
      "outputs": [
        {
          "internalType": "uint256",
          "name": "",
          "type": "uint256"
        }
      ],
      "stateMutability": "view",
      "type": "function"
    },
    {
      "inputs": [
        {
          "internalType": "address",
          "name": "account",
          "type": "address"
        }
      ],
      "name": "releasable",
      "outputs": [
        {
          "internalType": "uint256",
          "name": "",
          "type": "uint256"
        }
      ],
      "stateMutability": "view",
      "type": "function"
    },
    {
      "inputs": [
        {
          "internalType": "contract IERC20",
          "name": "token",
          "type": "address"
        },
        {
          "internalType": "address",
          "name": "account",
          "type": "address"
        }
      ],
      "name": "releasable",
      "outputs": [
        {
          "internalType": "uint256",
          "name": "",
          "type": "uint256"
        }
      ],
      "stateMutability": "view",
      "type": "function"
    },
    {
      "inputs": [
        {
          "internalType": "address payable",
          "name": "account",
          "type": "address"
        }
      ],
      "name": "release",
      "outputs": [],
      "stateMutability": "nonpayable",
      "type": "function"
    },
    {
      "inputs": [
        {
          "internalType": "contract IERC20",
          "name": "token",
          "type": "address"
        },
        {
          "internalType": "address",
          "name": "account",
          "type": "address"
        }
      ],
      "name": "release",
      "outputs": [],
      "stateMutability": "nonpayable",
      "type": "function"
    },
    {
      "inputs": [
        {
          "internalType": "contract IERC20",
          "name": "token",
          "type": "address"
        },
        {
          "internalType": "address",
          "name": "account",
          "type": "address"
        }
      ],
      "name": "released",
      "outputs": [
        {
          "internalType": "uint256",
          "name": "",
          "type": "uint256"
        }
      ],
      "stateMutability": "view",
      "type": "function"
    },
    {
      "inputs": [
        {
          "internalType": "address",
          "name": "account",
          "type": "address"
        }
      ],
      "name": "released",
      "outputs": [
        {
          "internalType": "uint256",
          "name": "",
          "type": "uint256"
        }
      ],
      "stateMutability": "view",
      "type": "function"
    },
    {
      "inputs": [],
      "name": "renounceOwnership",
      "outputs": [],
      "stateMutability": "nonpayable",
      "type": "function"
    },
    {
      "inputs": [
        {
          "internalType": "address",
          "name": "from",
          "type": "address"
        },
        {
          "internalType": "address",
          "name": "to",
          "type": "address"
        },
        {
          "internalType": "uint256",
          "name": "tokenId",
          "type": "uint256"
        }
      ],
      "name": "safeTransferFrom",
      "outputs": [],
      "stateMutability": "nonpayable",
      "type": "function"
    },
    {
      "inputs": [
        {
          "internalType": "address",
          "name": "from",
          "type": "address"
        },
        {
          "internalType": "address",
          "name": "to",
          "type": "address"
        },
        {
          "internalType": "uint256",
          "name": "tokenId",
          "type": "uint256"
        },
        {
          "internalType": "bytes",
          "name": "_data",
          "type": "bytes"
        }
      ],
      "name": "safeTransferFrom",
      "outputs": [],
      "stateMutability": "nonpayable",
      "type": "function"
    },
    {
      "inputs": [
        {
          "internalType": "uint256",
          "name": "_quantity",
          "type": "uint256"
        }
      ],
      "name": "saleRaton",
      "outputs": [],
      "stateMutability": "nonpayable",
      "type": "function"
    },
    {
      "inputs": [],
      "name": "sellingStep",
      "outputs": [
        {
          "internalType": "enum RpcpRaton.Steps",
          "name": "",
          "type": "uint8"
        }
      ],
      "stateMutability": "view",
      "type": "function"
    },
    {
      "inputs": [
        {
          "internalType": "address",
          "name": "operator",
          "type": "address"
        },
        {
          "internalType": "bool",
          "name": "approved",
          "type": "bool"
        }
      ],
      "name": "setApprovalForAll",
      "outputs": [],
      "stateMutability": "nonpayable",
      "type": "function"
    },
    {
      "inputs": [
        {
          "internalType": "string",
          "name": "_newBaseURI",
          "type": "string"
        }
      ],
      "name": "setBaseUri",
      "outputs": [],
      "stateMutability": "nonpayable",
      "type": "function"
    },
    {
      "inputs": [
        {
          "internalType": "uint256",
          "name": "_step",
          "type": "uint256"
        }
      ],
      "name": "setStep",
      "outputs": [],
      "stateMutability": "nonpayable",
      "type": "function"
    },
    {
      "inputs": [
        {
          "internalType": "address",
          "name": "_newTokenAddress",
          "type": "address"
        }
      ],
      "name": "setTokenAddress",
      "outputs": [],
      "stateMutability": "nonpayable",
      "type": "function"
    },
    {
      "inputs": [
        {
          "internalType": "address",
          "name": "account",
          "type": "address"
        }
      ],
      "name": "shares",
      "outputs": [
        {
          "internalType": "uint256",
          "name": "",
          "type": "uint256"
        }
      ],
      "stateMutability": "view",
      "type": "function"
    },
    {
      "inputs": [
        {
          "internalType": "bytes4",
          "name": "interfaceId",
          "type": "bytes4"
        }
      ],
      "name": "supportsInterface",
      "outputs": [
        {
          "internalType": "bool",
          "name": "",
          "type": "bool"
        }
      ],
      "stateMutability": "view",
      "type": "function"
    },
    {
      "inputs": [],
      "name": "symbol",
      "outputs": [
        {
          "internalType": "string",
          "name": "",
          "type": "string"
        }
      ],
      "stateMutability": "view",
      "type": "function"
    },
    {
      "inputs": [
        {
          "internalType": "uint256",
          "name": "_nftId",
          "type": "uint256"
        }
      ],
      "name": "tokenURI",
      "outputs": [
        {
          "internalType": "string",
          "name": "",
          "type": "string"
        }
      ],
      "stateMutability": "view",
      "type": "function"
    },
    {
      "inputs": [
        {
          "internalType": "contract IERC20",
          "name": "token",
          "type": "address"
        }
      ],
      "name": "totalReleased",
      "outputs": [
        {
          "internalType": "uint256",
          "name": "",
          "type": "uint256"
        }
      ],
      "stateMutability": "view",
      "type": "function"
    },
    {
      "inputs": [],
      "name": "totalReleased",
      "outputs": [
        {
          "internalType": "uint256",
          "name": "",
          "type": "uint256"
        }
      ],
      "stateMutability": "view",
      "type": "function"
    },
    {
      "inputs": [],
      "name": "totalShares",
      "outputs": [
        {
          "internalType": "uint256",
          "name": "",
          "type": "uint256"
        }
      ],
      "stateMutability": "view",
      "type": "function"
    },
    {
      "inputs": [],
      "name": "totalSupply",
      "outputs": [
        {
          "internalType": "uint256",
          "name": "",
          "type": "uint256"
        }
      ],
      "stateMutability": "view",
      "type": "function"
    },
    {
      "inputs": [
        {
          "internalType": "address",
          "name": "from",
          "type": "address"
        },
        {
          "internalType": "address",
          "name": "to",
          "type": "address"
        },
        {
          "internalType": "uint256",
          "name": "tokenId",
          "type": "uint256"
        }
      ],
      "name": "transferFrom",
      "outputs": [],
      "stateMutability": "nonpayable",
      "type": "function"
    },
    {
      "inputs": [
        {
          "internalType": "address",
          "name": "newOwner",
          "type": "address"
        }
      ],
      "name": "transferOwnership",
      "outputs": [],
      "stateMutability": "nonpayable",
      "type": "function"
    },
    {
      "inputs": [],
      "name": "withdrawCommission",
      "outputs": [],
      "stateMutability": "nonpayable",
      "type": "function"
    },
    {
      "stateMutability": "payable",
      "type": "receive"
    }
  ],
  "bytecode": "0x60806040526101f4601155631dcd65006012556040518060400160405280600581526020017f2e6a736f6e0000000000000000000000000000000000000000000000000000008152506014908162000058919062000cf2565b50620000696200064860201b60201c565b6018556040518060e0016040528073e2a958245323575753f4937ead597587499cdd9b73ffffffffffffffffffffffffffffffffffffffff1673ffffffffffffffffffffffffffffffffffffffff1681526020017327846b664a6242f1dae9b96e89c30d579acecc3f73ffffffffffffffffffffffffffffffffffffffff1673ffffffffffffffffffffffffffffffffffffffff168152602001737eeaad9c49c5422ea6b65665146187a66f22c48e73ffffffffffffffffffffffffffffffffffffffff1673ffffffffffffffffffffffffffffffffffffffff168152602001732005b0314dd86741bbc436e0448f2be42e2f4c6973ffffffffffffffffffffffffffffffffffffffff1673ffffffffffffffffffffffffffffffffffffffff1681526020017332a8da1ad9d63126e1fb2293710e1bad58affd3473ffffffffffffffffffffffffffffffffffffffff1673ffffffffffffffffffffffffffffffffffffffff168152602001734a8e9affc6323a5338dc6b83db4e717b5c06262473ffffffffffffffffffffffffffffffffffffffff1673ffffffffffffffffffffffffffffffffffffffff16815260200173c119240bd828fa36b7342ddf2ee4737b18afac6a73ffffffffffffffffffffffffffffffffffffffff1673ffffffffffffffffffffffffffffffffffffffff16815250601c9060076200027192919062000973565b506040518060e00160405280605560ff168152602001600a60ff168152602001600160ff168152602001600160ff168152602001600160ff168152602001600160ff168152602001600160ff16815250601d906007620002d392919062000a02565b50348015620002e157600080fd5b506040516200634238038062006342833981810160405281019062000307919062000fac565b601c8054806020026020016040519081016040528092919081815260200182805480156200038b57602002820191906000526020600020905b8160009054906101000a900473ffffffffffffffffffffffffffffffffffffffff1673ffffffffffffffffffffffffffffffffffffffff168152602001906001019080831162000340575b5050505050601d805480602002602001604051908101604052809291908181526020018280548015620003de57602002820191906000526020600020905b815481526020019060010190808311620003c9575b50505050506040518060400160405280600481526020017f52706370000000000000000000000000000000000000000000000000000000008152506040518060400160405280600481526020017f5250435000000000000000000000000000000000000000000000000000000000815250816002908162000460919062000cf2565b50806003908162000472919062000cf2565b50620004836200066760201b60201c565b60008190555050508051825114620004d2576040517f08c379a0000000000000000000000000000000000000000000000000000000008152600401620004c99062001099565b60405180910390fd5b600082511162000519576040517f08c379a000000000000000000000000000000000000000000000000000000000815260040162000510906200110b565b60405180910390fd5b60005b825181101562000588576200057283828151811062000540576200053f6200112d565b5b60200260200101518383815181106200055e576200055d6200112d565b5b60200260200101516200066c60201b60201c565b80806200057f906200118b565b9150506200051c565b505050620005ab6200059f620008a560201b60201c565b620008ad60201b60201c565b60016010819055506000601560146101000a81548160ff02191690836003811115620005dc57620005db620011d8565b5b02179055508160139081620005f2919062000cf2565b50601c80549050601b8190555080601560006101000a81548173ffffffffffffffffffffffffffffffffffffffff021916908373ffffffffffffffffffffffffffffffffffffffff160217905550505062001455565b60006200065a6200066760201b60201c565b6001546000540303905090565b600090565b600073ffffffffffffffffffffffffffffffffffffffff168273ffffffffffffffffffffffffffffffffffffffff1603620006de576040517f08c379a0000000000000000000000000000000000000000000000000000000008152600401620006d5906200127d565b60405180910390fd5b6000811162000724576040517f08c379a00000000000000000000000000000000000000000000000000000000081526004016200071b90620012ef565b60405180910390fd5b6000600a60008473ffffffffffffffffffffffffffffffffffffffff1673ffffffffffffffffffffffffffffffffffffffff1681526020019081526020016000205414620007a9576040517f08c379a0000000000000000000000000000000000000000000000000000000008152600401620007a09062001387565b60405180910390fd5b600c829080600181540180825580915050600190039060005260206000200160009091909190916101000a81548173ffffffffffffffffffffffffffffffffffffffff021916908373ffffffffffffffffffffffffffffffffffffffff16021790555080600a60008473ffffffffffffffffffffffffffffffffffffffff1673ffffffffffffffffffffffffffffffffffffffff1681526020019081526020016000208190555080600854620008609190620013a9565b6008819055507f40c340f65e17194d14ddddb073d3c9f888e3cb52b5aae0c6c7706b4fbc905fac82826040516200089992919062001428565b60405180910390a15050565b600033905090565b6000600f60009054906101000a900473ffffffffffffffffffffffffffffffffffffffff16905081600f60006101000a81548173ffffffffffffffffffffffffffffffffffffffff021916908373ffffffffffffffffffffffffffffffffffffffff1602179055508173ffffffffffffffffffffffffffffffffffffffff168173ffffffffffffffffffffffffffffffffffffffff167f8be0079c531659141344cd1fd0a4f28419497f9722a3daafe3b4186f6b6457e060405160405180910390a35050565b828054828255906000526020600020908101928215620009ef579160200282015b82811115620009ee5782518260006101000a81548173ffffffffffffffffffffffffffffffffffffffff021916908373ffffffffffffffffffffffffffffffffffffffff1602179055509160200191906001019062000994565b5b509050620009fe919062000a59565b5090565b82805482825590600052602060002090810192821562000a46579160200282015b8281111562000a45578251829060ff1690559160200191906001019062000a23565b5b50905062000a55919062000a59565b5090565b5b8082111562000a7457600081600090555060010162000a5a565b5090565b600081519050919050565b7f4e487b7100000000000000000000000000000000000000000000000000000000600052604160045260246000fd5b7f4e487b7100000000000000000000000000000000000000000000000000000000600052602260045260246000fd5b6000600282049050600182168062000afa57607f821691505b60208210810362000b105762000b0f62000ab2565b5b50919050565b60008190508160005260206000209050919050565b60006020601f8301049050919050565b600082821b905092915050565b60006008830262000b7a7fffffffffffffffffffffffffffffffffffffffffffffffffffffffffffffffff8262000b3b565b62000b86868362000b3b565b95508019841693508086168417925050509392505050565b6000819050919050565b6000819050919050565b600062000bd362000bcd62000bc78462000b9e565b62000ba8565b62000b9e565b9050919050565b6000819050919050565b62000bef8362000bb2565b62000c0762000bfe8262000bda565b84845462000b48565b825550505050565b600090565b62000c1e62000c0f565b62000c2b81848462000be4565b505050565b5b8181101562000c535762000c4760008262000c14565b60018101905062000c31565b5050565b601f82111562000ca25762000c6c8162000b16565b62000c778462000b2b565b8101602085101562000c87578190505b62000c9f62000c968562000b2b565b83018262000c30565b50505b505050565b600082821c905092915050565b600062000cc76000198460080262000ca7565b1980831691505092915050565b600062000ce2838362000cb4565b9150826002028217905092915050565b62000cfd8262000a78565b67ffffffffffffffff81111562000d195762000d1862000a83565b5b62000d25825462000ae1565b62000d3282828562000c57565b600060209050601f83116001811462000d6a576000841562000d55578287015190505b62000d61858262000cd4565b86555062000dd1565b601f19841662000d7a8662000b16565b60005b8281101562000da45784890151825560018201915060208501945060208101905062000d7d565b8683101562000dc4578489015162000dc0601f89168262000cb4565b8355505b6001600288020188555050505b505050505050565b6000604051905090565b600080fd5b600080fd5b600080fd5b600080fd5b6000601f19601f8301169050919050565b62000e138262000df7565b810181811067ffffffffffffffff8211171562000e355762000e3462000a83565b5b80604052505050565b600062000e4a62000dd9565b905062000e58828262000e08565b919050565b600067ffffffffffffffff82111562000e7b5762000e7a62000a83565b5b62000e868262000df7565b9050602081019050919050565b60005b8381101562000eb357808201518184015260208101905062000e96565b8381111562000ec3576000848401525b50505050565b600062000ee062000eda8462000e5d565b62000e3e565b90508281526020810184848401111562000eff5762000efe62000df2565b5b62000f0c84828562000e93565b509392505050565b600082601f83011262000f2c5762000f2b62000ded565b5b815162000f3e84826020860162000ec9565b91505092915050565b600073ffffffffffffffffffffffffffffffffffffffff82169050919050565b600062000f748262000f47565b9050919050565b62000f868162000f67565b811462000f9257600080fd5b50565b60008151905062000fa68162000f7b565b92915050565b6000806040838503121562000fc65762000fc562000de3565b5b600083015167ffffffffffffffff81111562000fe75762000fe662000de8565b5b62000ff58582860162000f14565b9250506020620010088582860162000f95565b9150509250929050565b600082825260208201905092915050565b7f5061796d656e7453706c69747465723a2070617965657320616e64207368617260008201527f6573206c656e677468206d69736d617463680000000000000000000000000000602082015250565b60006200108160328362001012565b91506200108e8262001023565b604082019050919050565b60006020820190508181036000830152620010b48162001072565b9050919050565b7f5061796d656e7453706c69747465723a206e6f20706179656573000000000000600082015250565b6000620010f3601a8362001012565b91506200110082620010bb565b602082019050919050565b600060208201905081810360008301526200112681620010e4565b9050919050565b7f4e487b7100000000000000000000000000000000000000000000000000000000600052603260045260246000fd5b7f4e487b7100000000000000000000000000000000000000000000000000000000600052601160045260246000fd5b6000620011988262000b9e565b91507fffffffffffffffffffffffffffffffffffffffffffffffffffffffffffffffff8203620011cd57620011cc6200115c565b5b600182019050919050565b7f4e487b7100000000000000000000000000000000000000000000000000000000600052602160045260246000fd5b7f5061796d656e7453706c69747465723a206163636f756e74206973207468652060008201527f7a65726f20616464726573730000000000000000000000000000000000000000602082015250565b600062001265602c8362001012565b9150620012728262001207565b604082019050919050565b60006020820190508181036000830152620012988162001256565b9050919050565b7f5061796d656e7453706c69747465723a20736861726573206172652030000000600082015250565b6000620012d7601d8362001012565b9150620012e4826200129f565b602082019050919050565b600060208201905081810360008301526200130a81620012c8565b9050919050565b7f5061796d656e7453706c69747465723a206163636f756e7420616c726561647960008201527f2068617320736861726573000000000000000000000000000000000000000000602082015250565b60006200136f602b8362001012565b91506200137c8262001311565b604082019050919050565b60006020820190508181036000830152620013a28162001360565b9050919050565b6000620013b68262000b9e565b9150620013c38362000b9e565b9250827fffffffffffffffffffffffffffffffffffffffffffffffffffffffffffffffff03821115620013fb57620013fa6200115c565b5b828201905092915050565b620014118162000f67565b82525050565b620014228162000b9e565b82525050565b60006040820190506200143f600083018562001406565b6200144e602083018462001417565b9392505050565b614edd80620014656000396000f3fe60806040526004361061023f5760003560e01c80638da5cb5b1161012e578063c45ac050116100ab578063d79779b21161006f578063d79779b2146108f0578063e33b7de31461092d578063e985e9c514610958578063f2fde38b14610995578063f8dcbddb146109be57610286565b8063c45ac050146107e3578063c668286214610820578063c87b56dd1461084b578063cbccefb214610888578063ce7c2ac2146108b357610286565b8063a3f8eace116100f2578063a3f8eace146106fe578063b6b55f251461073b578063b88d4fde14610764578063ba0c60c91461078d578063bf395be8146107b857610286565b80638da5cb5b1461061957806395d89b41146106445780639852595c1461066f578063a0bcfc7f146106ac578063a22cb465146106d557610286565b80633e25e837116101bc5780636352211e116101805780636352211e1461052257806370a082311461055f578063715018a61461059c578063726bb5cb146105b35780638b83209b146105dc57610286565b80633e25e83714610453578063406072a91461046a57806342842e0e146104a757806348b75044146104d0578063549df2df146104f957610286565b806318160ddd1161020357806318160ddd1461038257806319165587146103ad57806323b872dd146103d657806326a4e8d2146103ff5780633a98ef391461042857610286565b806301ffc9a71461028b57806306fdde03146102c8578063081812fc146102f3578063095ea7b3146103305780631103d1651461035957610286565b36610286577f6ef95f06320e7a25a04a175ca677b7052bdd97131872c2192525a629f51be77061026d6109e7565b3460405161027c9291906138d4565b60405180910390a1005b600080fd5b34801561029757600080fd5b506102b260048036038101906102ad9190613969565b6109ef565b6040516102bf91906139b1565b60405180910390f35b3480156102d457600080fd5b506102dd610a81565b6040516102ea9190613a65565b60405180910390f35b3480156102ff57600080fd5b5061031a60048036038101906103159190613ab3565b610b13565b6040516103279190613ae0565b60405180910390f35b34801561033c57600080fd5b5061035760048036038101906103529190613b27565b610b8f565b005b34801561036557600080fd5b50610380600480360381019061037b9190613ab3565b610cd0565b005b34801561038e57600080fd5b50610397610f48565b6040516103a49190613b67565b60405180910390f35b3480156103b957600080fd5b506103d460048036038101906103cf9190613bc0565b610f5f565b005b3480156103e257600080fd5b506103fd60048036038101906103f89190613bed565b6110e7565b005b34801561040b57600080fd5b5061042660048036038101906104219190613c40565b611409565b005b34801561043457600080fd5b5061043d611455565b60405161044a9190613b67565b60405180910390f35b34801561045f57600080fd5b5061046861145f565b005b34801561047657600080fd5b50610491600480360381019061048c9190613cab565b6116cc565b60405161049e9190613b67565b60405180910390f35b3480156104b357600080fd5b506104ce60048036038101906104c99190613bed565b611753565b005b3480156104dc57600080fd5b506104f760048036038101906104f29190613cab565b611773565b005b34801561050557600080fd5b50610520600480360381019061051b9190613ab3565b61198f565b005b34801561052e57600080fd5b5061054960048036038101906105449190613ab3565b6119a1565b6040516105569190613ae0565b60405180910390f35b34801561056b57600080fd5b5061058660048036038101906105819190613c40565b6119b3565b6040516105939190613b67565b60405180910390f35b3480156105a857600080fd5b506105b1611a6b565b005b3480156105bf57600080fd5b506105da60048036038101906105d59190613ab3565b611a7f565b005b3480156105e857600080fd5b5061060360048036038101906105fe9190613ab3565b611a91565b6040516106109190613ae0565b60405180910390f35b34801561062557600080fd5b5061062e611ad9565b60405161063b9190613ae0565b60405180910390f35b34801561065057600080fd5b50610659611b03565b6040516106669190613a65565b60405180910390f35b34801561067b57600080fd5b5061069660048036038101906106919190613c40565b611b95565b6040516106a39190613b67565b60405180910390f35b3480156106b857600080fd5b506106d360048036038101906106ce9190613e20565b611bde565b005b3480156106e157600080fd5b506106fc60048036038101906106f79190613e95565b611bf9565b005b34801561070a57600080fd5b5061072560048036038101906107209190613c40565b611d70565b6040516107329190613b67565b60405180910390f35b34801561074757600080fd5b50610762600480360381019061075d9190613ab3565b611da3565b005b34801561077057600080fd5b5061078b60048036038101906107869190613f76565b611e59565b005b34801561079957600080fd5b506107a2611ecc565b6040516107af9190613b67565b60405180910390f35b3480156107c457600080fd5b506107cd611ed2565b6040516107da9190613b67565b60405180910390f35b3480156107ef57600080fd5b5061080a60048036038101906108059190613cab565b611ed8565b6040516108179190613b67565b60405180910390f35b34801561082c57600080fd5b50610835611f87565b6040516108429190613a65565b60405180910390f35b34801561085757600080fd5b50610872600480360381019061086d9190613ab3565b612015565b60405161087f9190613a65565b60405180910390f35b34801561089457600080fd5b5061089d612089565b6040516108aa9190614070565b60405180910390f35b3480156108bf57600080fd5b506108da60048036038101906108d59190613c40565b61209c565b6040516108e79190613b67565b60405180910390f35b3480156108fc57600080fd5b506109176004803603810190610912919061408b565b6120e5565b6040516109249190613b67565b60405180910390f35b34801561093957600080fd5b5061094261212e565b60405161094f9190613b67565b60405180910390f35b34801561096457600080fd5b5061097f600480360381019061097a91906140b8565b612138565b60405161098c91906139b1565b60405180910390f35b3480156109a157600080fd5b506109bc60048036038101906109b79190613c40565b6121cc565b005b3480156109ca57600080fd5b506109e560048036038101906109e09190613ab3565b61224f565b005b600033905090565b60006301ffc9a760e01b827bffffffffffffffffffffffffffffffffffffffffffffffffffffffff19161480610a4a57506380ac58cd60e01b827bffffffffffffffffffffffffffffffffffffffffffffffffffffffff1916145b80610a7a5750635b5e139f60e01b827bffffffffffffffffffffffffffffffffffffffffffffffffffffffff1916145b9050919050565b606060028054610a9090614127565b80601f0160208091040260200160405190810160405280929190818152602001828054610abc90614127565b8015610b095780601f10610ade57610100808354040283529160200191610b09565b820191906000526020600020905b815481529060010190602001808311610aec57829003601f168201915b5050505050905090565b6000610b1e82612296565b610b54576040517fcf4700e400000000000000000000000000000000000000000000000000000000815260040160405180910390fd5b6006600083815260200190815260200160002060009054906101000a900473ffffffffffffffffffffffffffffffffffffffff169050919050565b6000610b9a826119a1565b90508073ffffffffffffffffffffffffffffffffffffffff16610bbb6122f5565b73ffffffffffffffffffffffffffffffffffffffff1614610c1e57610be781610be26122f5565b612138565b610c1d576040517fcfb3b94200000000000000000000000000000000000000000000000000000000815260040160405180910390fd5b5b826006600084815260200190815260200160002060006101000a81548173ffffffffffffffffffffffffffffffffffffffff021916908373ffffffffffffffffffffffffffffffffffffffff160217905550818373ffffffffffffffffffffffffffffffffffffffff168273ffffffffffffffffffffffffffffffffffffffff167f8c5be1e5ebec7d5bd14f71427d1e84f3dd0314c0f7b2291e5b200ac8c7c3b92560405160405180910390a4505050565b600260105403610d15576040517f08c379a0000000000000000000000000000000000000000000000000000000008152600401610d0c906141a4565b60405180910390fd5b60026010819055506000601254905060016003811115610d3857610d37613ff9565b5b601560149054906101000a900460ff166003811115610d5a57610d59613ff9565b5b14610d6457600080fd5b60115482601a60003373ffffffffffffffffffffffffffffffffffffffff1673ffffffffffffffffffffffffffffffffffffffff16815260200190815260200160002054610db291906141f3565b1115610dbd57600080fd5b601560009054906101000a900473ffffffffffffffffffffffffffffffffffffffff1673ffffffffffffffffffffffffffffffffffffffff166323b872dd33308585610e099190614249565b6040518463ffffffff1660e01b8152600401610e27939291906142a3565b6020604051808303816000875af1158015610e46573d6000803e3d6000fd5b505050506040513d601f19601f82011682018060405250810190610e6a91906142ef565b610e7357600080fd5b6103e882601854610e8491906141f3565b1115610e8f57600080fd5b81601a60003373ffffffffffffffffffffffffffffffffffffffff1673ffffffffffffffffffffffffffffffffffffffff1681526020019081526020016000206000828254610ede91906141f3565b925050819055506103e882601854610ef691906141f3565b10610f27576002601560146101000a81548160ff02191690836003811115610f2157610f20613ff9565b5b02179055505b610f323382846122fd565b610f3c33836123c3565b50600160108190555050565b6000610f526123e1565b6001546000540303905090565b6000600a60008373ffffffffffffffffffffffffffffffffffffffff1673ffffffffffffffffffffffffffffffffffffffff1681526020019081526020016000205411610fe1576040517f08c379a0000000000000000000000000000000000000000000000000000000008152600401610fd89061438e565b60405180910390fd5b6000610fec82611d70565b905060008103611031576040517f08c379a000000000000000000000000000000000000000000000000000000000815260040161102890614420565b60405180910390fd5b80600b60008473ffffffffffffffffffffffffffffffffffffffff1673ffffffffffffffffffffffffffffffffffffffff168152602001908152602001600020600082825461108091906141f3565b92505081905550806009600082825461109991906141f3565b925050819055506110aa82826123e6565b7fdf20fd1e76bc69d672e4814fafb2c449bba3a5369d8359adf9e05e6fde87b05682826040516110db92919061449f565b60405180910390a15050565b60006110f2826124da565b90508373ffffffffffffffffffffffffffffffffffffffff168173ffffffffffffffffffffffffffffffffffffffff1614611159576040517fa114810000000000000000000000000000000000000000000000000000000000815260040160405180910390fd5b600080611165846125a6565b9150915061117b81876111766122f5565b6125c8565b6111c7576111908661118b6122f5565b612138565b6111c6576040517f59c896be00000000000000000000000000000000000000000000000000000000815260040160405180910390fd5b5b600073ffffffffffffffffffffffffffffffffffffffff168573ffffffffffffffffffffffffffffffffffffffff160361122d576040517fea553b3400000000000000000000000000000000000000000000000000000000815260040160405180910390fd5b61123a868686600161260c565b801561124557600082555b600560008773ffffffffffffffffffffffffffffffffffffffff1673ffffffffffffffffffffffffffffffffffffffff168152602001908152602001600020600081546001900391905081905550600560008673ffffffffffffffffffffffffffffffffffffffff1673ffffffffffffffffffffffffffffffffffffffff1681526020019081526020016000206000815460010191905081905550611313856112ef888887612612565b7c02000000000000000000000000000000000000000000000000000000001761263a565b600460008681526020019081526020016000208190555060007c02000000000000000000000000000000000000000000000000000000008416036113995760006001850190506000600460008381526020019081526020016000205403611397576000548114611396578360046000838152602001908152602001600020819055505b5b505b838573ffffffffffffffffffffffffffffffffffffffff168773ffffffffffffffffffffffffffffffffffffffff167fddf252ad1be2c89b69c2b068fc378daa952ba7f163c4a11628f55a4df523b3ef60405160405180910390a46114018686866001612665565b505050505050565b611411612b08565b80601560006101000a81548173ffffffffffffffffffffffffffffffffffffffff021916908373ffffffffffffffffffffffffffffffffffffffff16021790555050565b6000600854905090565b6002601054036114a4576040517f08c379a000000000000000000000000000000000000000000000000000000000815260040161149b906141a4565b60405180910390fd5b6002601081905550600033905060004290506000601660008473ffffffffffffffffffffffffffffffffffffffff1673ffffffffffffffffffffffffffffffffffffffff168152602001908152602001600020805490501161150557600080fd5b60006115118383612b86565b90506000811161152057600080fd5b80601560009054906101000a900473ffffffffffffffffffffffffffffffffffffffff1673ffffffffffffffffffffffffffffffffffffffff166370a08231306040518263ffffffff1660e01b815260040161157c9190613ae0565b602060405180830381865afa158015611599573d6000803e3d6000fd5b505050506040513d601f19601f820116820180604052508101906115bd91906144dd565b10156115c857600080fd5b601560009054906101000a900473ffffffffffffffffffffffffffffffffffffffff1673ffffffffffffffffffffffffffffffffffffffff1663a9059cbb84836040518363ffffffff1660e01b81526004016116259291906138d4565b6020604051808303816000875af1158015611644573d6000803e3d6000fd5b505050506040513d601f19601f8201168201806040525081019061166891906142ef565b61167157600080fd5b61167b8383612ced565b808373ffffffffffffffffffffffffffffffffffffffff167fb5499fc99039630a8a9d9534c1c6be6f24fd7fba04c6e7015e7f50b3224972da60405160405180910390a35050506001601081905550565b6000600e60008473ffffffffffffffffffffffffffffffffffffffff1673ffffffffffffffffffffffffffffffffffffffff16815260200190815260200160002060008373ffffffffffffffffffffffffffffffffffffffff1673ffffffffffffffffffffffffffffffffffffffff16815260200190815260200160002054905092915050565b61176e83838360405180602001604052806000815250611e59565b505050565b6000600a60008373ffffffffffffffffffffffffffffffffffffffff1673ffffffffffffffffffffffffffffffffffffffff16815260200190815260200160002054116117f5576040517f08c379a00000000000000000000000000000000000000000000000000000000081526004016117ec9061438e565b60405180910390fd5b60006118018383611ed8565b905060008103611846576040517f08c379a000000000000000000000000000000000000000000000000000000000815260040161183d90614420565b60405180910390fd5b80600e60008573ffffffffffffffffffffffffffffffffffffffff1673ffffffffffffffffffffffffffffffffffffffff16815260200190815260200160002060008473ffffffffffffffffffffffffffffffffffffffff1673ffffffffffffffffffffffffffffffffffffffff16815260200190815260200160002060008282546118d291906141f3565b9250508190555080600d60008573ffffffffffffffffffffffffffffffffffffffff1673ffffffffffffffffffffffffffffffffffffffff168152602001908152602001600020600082825461192891906141f3565b9250508190555061193a838383612e50565b8273ffffffffffffffffffffffffffffffffffffffff167f3be5b7a71e84ed12875d241991c70855ac5817d847039e17a9d895c1ceb0f18a83836040516119829291906138d4565b60405180910390a2505050565b611997612b08565b8060118190555050565b60006119ac826124da565b9050919050565b60008073ffffffffffffffffffffffffffffffffffffffff168273ffffffffffffffffffffffffffffffffffffffff1603611a1a576040517f8f4eb60400000000000000000000000000000000000000000000000000000000815260040160405180910390fd5b67ffffffffffffffff600560008473ffffffffffffffffffffffffffffffffffffffff1673ffffffffffffffffffffffffffffffffffffffff16815260200190815260200160002054169050919050565b611a73612b08565b611a7d6000612ed6565b565b611a87612b08565b8060128190555050565b6000600c8281548110611aa757611aa661450a565b5b9060005260206000200160009054906101000a900473ffffffffffffffffffffffffffffffffffffffff169050919050565b6000600f60009054906101000a900473ffffffffffffffffffffffffffffffffffffffff16905090565b606060038054611b1290614127565b80601f0160208091040260200160405190810160405280929190818152602001828054611b3e90614127565b8015611b8b5780601f10611b6057610100808354040283529160200191611b8b565b820191906000526020600020905b815481529060010190602001808311611b6e57829003601f168201915b5050505050905090565b6000600b60008373ffffffffffffffffffffffffffffffffffffffff1673ffffffffffffffffffffffffffffffffffffffff168152602001908152602001600020549050919050565b611be6612b08565b8060139081611bf591906146db565b5050565b611c016122f5565b73ffffffffffffffffffffffffffffffffffffffff168273ffffffffffffffffffffffffffffffffffffffff1603611c65576040517fb06307db00000000000000000000000000000000000000000000000000000000815260040160405180910390fd5b8060076000611c726122f5565b73ffffffffffffffffffffffffffffffffffffffff1673ffffffffffffffffffffffffffffffffffffffff16815260200190815260200160002060008473ffffffffffffffffffffffffffffffffffffffff1673ffffffffffffffffffffffffffffffffffffffff16815260200190815260200160002060006101000a81548160ff0219169083151502179055508173ffffffffffffffffffffffffffffffffffffffff16611d1f6122f5565b73ffffffffffffffffffffffffffffffffffffffff167f17307eab39ab6107e8899845ad3d59bd9653f200f220920489ca2b5937696c3183604051611d6491906139b1565b60405180910390a35050565b600080611d7b61212e565b47611d8691906141f3565b9050611d9b8382611d9686611b95565b612f9c565b915050919050565b611dab612b08565b601560009054906101000a900473ffffffffffffffffffffffffffffffffffffffff1673ffffffffffffffffffffffffffffffffffffffff166323b872dd3330846040518463ffffffff1660e01b8152600401611e0a939291906142a3565b6020604051808303816000875af1158015611e29573d6000803e3d6000fd5b505050506040513d601f19601f82011682018060405250810190611e4d91906142ef565b611e5657600080fd5b50565b611e648484846110e7565b60008373ffffffffffffffffffffffffffffffffffffffff163b14611ec657611e8f8484848461300a565b611ec5576040517fd1a57ed600000000000000000000000000000000000000000000000000000000815260040160405180910390fd5b5b50505050565b60115481565b60125481565b600080611ee4846120e5565b8473ffffffffffffffffffffffffffffffffffffffff166370a08231306040518263ffffffff1660e01b8152600401611f1d9190613ae0565b602060405180830381865afa158015611f3a573d6000803e3d6000fd5b505050506040513d601f19601f82011682018060405250810190611f5e91906144dd565b611f6891906141f3565b9050611f7e8382611f7987876116cc565b612f9c565b91505092915050565b60148054611f9490614127565b80601f0160208091040260200160405190810160405280929190818152602001828054611fc090614127565b801561200d5780601f10611fe25761010080835404028352916020019161200d565b820191906000526020600020905b815481529060010190602001808311611ff057829003601f168201915b505050505081565b606061202082612296565b61202957600080fd5b600061203361315a565b905060008151116120535760405180602001604052806000815250612081565b8061205d846131ec565b60146040516020016120719392919061486c565b6040516020818303038152906040525b915050919050565b601560149054906101000a900460ff1681565b6000600a60008373ffffffffffffffffffffffffffffffffffffffff1673ffffffffffffffffffffffffffffffffffffffff168152602001908152602001600020549050919050565b6000600d60008373ffffffffffffffffffffffffffffffffffffffff1673ffffffffffffffffffffffffffffffffffffffff168152602001908152602001600020549050919050565b6000600954905090565b6000600760008473ffffffffffffffffffffffffffffffffffffffff1673ffffffffffffffffffffffffffffffffffffffff16815260200190815260200160002060008373ffffffffffffffffffffffffffffffffffffffff1673ffffffffffffffffffffffffffffffffffffffff16815260200190815260200160002060009054906101000a900460ff16905092915050565b6121d4612b08565b600073ffffffffffffffffffffffffffffffffffffffff168173ffffffffffffffffffffffffffffffffffffffff1603612243576040517f08c379a000000000000000000000000000000000000000000000000000000000815260040161223a9061490f565b60405180910390fd5b61224c81612ed6565b50565b612257612b08565b80600381111561226a57612269613ff9565b5b601560146101000a81548160ff0219169083600381111561228e5761228d613ff9565b5b021790555050565b6000816122a16123e1565b111580156122b0575060005482105b80156122ee575060007c0100000000000000000000000000000000000000000000000000000000600460008581526020019081526020016000205416145b9050919050565b600033905090565b601660008473ffffffffffffffffffffffffffffffffffffffff1673ffffffffffffffffffffffffffffffffffffffff1681526020019081526020016000206040518060800160405280848152602001838152602001600160195461236291906141f3565b8152602001428152509080600181540180825580915050600190039060005260206000209060040201600090919091909150600082015181600001556020820151816001015560408201518160020155606082015181600301555050505050565b6123dd82826040518060200160405280600081525061334c565b5050565b600090565b80471015612429576040517f08c379a00000000000000000000000000000000000000000000000000000000081526004016124209061497b565b60405180910390fd5b60008273ffffffffffffffffffffffffffffffffffffffff168260405161244f906149cc565b60006040518083038185875af1925050503d806000811461248c576040519150601f19603f3d011682016040523d82523d6000602084013e612491565b606091505b50509050806124d5576040517f08c379a00000000000000000000000000000000000000000000000000000000081526004016124cc90614a53565b60405180910390fd5b505050565b600080829050806124e96123e1565b1161256f5760005481101561256e5760006004600083815260200190815260200160002054905060007c010000000000000000000000000000000000000000000000000000000082160361256c575b60008103612562576004600083600190039350838152602001908152602001600020549050612538565b80925050506125a1565b505b5b6040517fdf2d9b4200000000000000000000000000000000000000000000000000000000815260040160405180910390fd5b919050565b6000806000600690508360005280602052604060002092508254915050915091565b600073ffffffffffffffffffffffffffffffffffffffff8316925073ffffffffffffffffffffffffffffffffffffffff821691508382148383141790509392505050565b50505050565b60008060e883901c905060e86126298686846133e9565b62ffffff16901b9150509392505050565b600073ffffffffffffffffffffffffffffffffffffffff83169250814260a01b178317905092915050565b6000601660008673ffffffffffffffffffffffffffffffffffffffff1673ffffffffffffffffffffffffffffffffffffffff168152602001908152602001600020805490501115612b025760005b601660008673ffffffffffffffffffffffffffffffffffffffff1673ffffffffffffffffffffffffffffffffffffffff16815260200190815260200160002080549050811015612b00576000601660008773ffffffffffffffffffffffffffffffffffffffff1673ffffffffffffffffffffffffffffffffffffffff16815260200190815260200160002082815481106127505761274f61450a565b5b906000526020600020906004020160405180608001604052908160008201548152602001600182015481526020016002820154815260200160038201548152505090506000848260400151111580156127c7575083856127b091906141f3565b826020015183604001516127c491906141f3565b10155b80156127d7575081602001518411155b90508015612aeb5760008260400151866127f19190614a73565b90506000818685602001516128069190614a73565b6128109190614a73565b9050601660008a73ffffffffffffffffffffffffffffffffffffffff1673ffffffffffffffffffffffffffffffffffffffff16815260200190815260200160002085815481106128635761286261450a565b5b90600052602060002090600402016000808201600090556001820160009055600282016000905560038201600090555050600082111561295d57601660008a73ffffffffffffffffffffffffffffffffffffffff1673ffffffffffffffffffffffffffffffffffffffff16815260200190815260200160002060405180608001604052808660000151815260200184815260200186604001518152602001866060015181525090806001815401808255809150506001900390600052602060002090600402016000909190919091506000820151816000015560208201518160010155604082015181600201556060820151816003015550505b6000811115612a2d57601660008a73ffffffffffffffffffffffffffffffffffffffff1673ffffffffffffffffffffffffffffffffffffffff168152602001908152602001600020604051806080016040528086600001518152602001838152602001888a6129cc91906141f3565b8152602001866060015181525090806001815401808255809150506001900390600052602060002090600402016000909190919091506000820151816000015560208201518160010155604082015181600201556060820151816003015550505b601660008973ffffffffffffffffffffffffffffffffffffffff1673ffffffffffffffffffffffffffffffffffffffff1681526020019081526020016000206040518060800160405280866000015181526020018881526020018981526020018660600151815250908060018154018082558091505060019003906000526020600020906004020160009091909190915060008201518160000155602082015181600101556040820151816002015560608201518160030155505050505b50508080612af890614aa7565b9150506126b3565b505b50505050565b612b106109e7565b73ffffffffffffffffffffffffffffffffffffffff16612b2e611ad9565b73ffffffffffffffffffffffffffffffffffffffff1614612b84576040517f08c379a0000000000000000000000000000000000000000000000000000000008152600401612b7b90614b3b565b60405180910390fd5b565b6000806000905060005b601660008673ffffffffffffffffffffffffffffffffffffffff1673ffffffffffffffffffffffffffffffffffffffff16815260200190815260200160002080549050811015612ce2576000601660008773ffffffffffffffffffffffffffffffffffffffff1673ffffffffffffffffffffffffffffffffffffffff1681526020019081526020016000208281548110612c2d57612c2c61450a565b5b906000526020600020906004020160405180608001604052908160008201548152602001600182015481526020016002820154815260200160038201548152505090506000612c808260600151876133f2565b9050600060646101f48460200151856000015185612c9e9190614249565b612ca89190614249565b612cb29190614249565b612cbc9190614b8a565b90508085612cca91906141f3565b94505050508080612cda90614aa7565b915050612b90565b508091505092915050565b60005b601660008473ffffffffffffffffffffffffffffffffffffffff1673ffffffffffffffffffffffffffffffffffffffff16815260200190815260200160002080549050811015612e4b576000612da8601660008673ffffffffffffffffffffffffffffffffffffffff1673ffffffffffffffffffffffffffffffffffffffff1681526020019081526020016000208381548110612d9057612d8f61450a565b5b906000526020600020906004020160030154846133f2565b9050600062278d0082612dbb9190614249565b905080601660008773ffffffffffffffffffffffffffffffffffffffff1673ffffffffffffffffffffffffffffffffffffffff1681526020019081526020016000208481548110612e0f57612e0e61450a565b5b90600052602060002090600402016003016000828254612e2f91906141f3565b9250508190555050508080612e4390614aa7565b915050612cf0565b505050565b612ed18363a9059cbb60e01b8484604051602401612e6f9291906138d4565b604051602081830303815290604052907bffffffffffffffffffffffffffffffffffffffffffffffffffffffff19166020820180517bffffffffffffffffffffffffffffffffffffffffffffffffffffffff838183161783525050505061341b565b505050565b6000600f60009054906101000a900473ffffffffffffffffffffffffffffffffffffffff16905081600f60006101000a81548173ffffffffffffffffffffffffffffffffffffffff021916908373ffffffffffffffffffffffffffffffffffffffff1602179055508173ffffffffffffffffffffffffffffffffffffffff168173ffffffffffffffffffffffffffffffffffffffff167f8be0079c531659141344cd1fd0a4f28419497f9722a3daafe3b4186f6b6457e060405160405180910390a35050565b600081600854600a60008773ffffffffffffffffffffffffffffffffffffffff1673ffffffffffffffffffffffffffffffffffffffff1681526020019081526020016000205485612fed9190614249565b612ff79190614b8a565b6130019190614a73565b90509392505050565b60008373ffffffffffffffffffffffffffffffffffffffff1663150b7a026130306122f5565b8786866040518563ffffffff1660e01b81526004016130529493929190614c10565b6020604051808303816000875af192505050801561308e57506040513d601f19601f8201168201806040525081019061308b9190614c71565b60015b613107573d80600081146130be576040519150601f19603f3d011682016040523d82523d6000602084013e6130c3565b606091505b5060008151036130ff576040517fd1a57ed600000000000000000000000000000000000000000000000000000000815260040160405180910390fd5b805181602001fd5b63150b7a0260e01b7bffffffffffffffffffffffffffffffffffffffffffffffffffffffff1916817bffffffffffffffffffffffffffffffffffffffffffffffffffffffff191614915050949350505050565b60606013805461316990614127565b80601f016020809104026020016040519081016040528092919081815260200182805461319590614127565b80156131e25780601f106131b7576101008083540402835291602001916131e2565b820191906000526020600020905b8154815290600101906020018083116131c557829003601f168201915b5050505050905090565b606060008203613233576040518060400160405280600181526020017f30000000000000000000000000000000000000000000000000000000000000008152509050613347565b600082905060005b6000821461326557808061324e90614aa7565b915050600a8261325e9190614b8a565b915061323b565b60008167ffffffffffffffff81111561328157613280613cf5565b5b6040519080825280601f01601f1916602001820160405280156132b35781602001600182028036833780820191505090505b5090505b60008514613340576001826132cc9190614a73565b9150600a856132db9190614c9e565b60306132e791906141f3565b60f81b8183815181106132fd576132fc61450a565b5b60200101907effffffffffffffffffffffffffffffffffffffffffffffffffffffffffffff1916908160001a905350600a856133399190614b8a565b94506132b7565b8093505050505b919050565b61335683836134e2565b60008373ffffffffffffffffffffffffffffffffffffffff163b146133e457600080549050600083820390505b613396600086838060010194508661300a565b6133cc576040517fd1a57ed600000000000000000000000000000000000000000000000000000000815260040160405180910390fd5b8181106133835781600054146133e157600080fd5b50505b505050565b60009392505050565b60008083836134019190614a73565b905062278d00816134129190614b8a565b91505092915050565b600061347d826040518060400160405280602081526020017f5361666545524332303a206c6f772d6c6576656c2063616c6c206661696c65648152508573ffffffffffffffffffffffffffffffffffffffff166136b49092919063ffffffff16565b90506000815111156134dd578080602001905181019061349d91906142ef565b6134dc576040517f08c379a00000000000000000000000000000000000000000000000000000000081526004016134d390614d41565b60405180910390fd5b5b505050565b600080549050600073ffffffffffffffffffffffffffffffffffffffff168373ffffffffffffffffffffffffffffffffffffffff160361354e576040517f2e07630000000000000000000000000000000000000000000000000000000000815260040160405180910390fd5b60008203613588576040517fb562e8dd00000000000000000000000000000000000000000000000000000000815260040160405180910390fd5b613595600084838561260c565b600160406001901b178202600560008573ffffffffffffffffffffffffffffffffffffffff1673ffffffffffffffffffffffffffffffffffffffff1681526020019081526020016000206000828254019250508190555061360c836135fd6000866000612612565b613606856136cc565b1761263a565b60046000838152602001908152602001600020819055506000819050600083830190505b818060010192508573ffffffffffffffffffffffffffffffffffffffff16600073ffffffffffffffffffffffffffffffffffffffff167fddf252ad1be2c89b69c2b068fc378daa952ba7f163c4a11628f55a4df523b3ef60405160405180910390a4808210613630578060008190555050506136af6000848385612665565b505050565b60606136c384846000856136dc565b90509392505050565b60006001821460e11b9050919050565b606082471015613721576040517f08c379a000000000000000000000000000000000000000000000000000000000815260040161371890614dd3565b60405180910390fd5b61372a856137f0565b613769576040517f08c379a000000000000000000000000000000000000000000000000000000000815260040161376090614e3f565b60405180910390fd5b6000808673ffffffffffffffffffffffffffffffffffffffff1685876040516137929190614e90565b60006040518083038185875af1925050503d80600081146137cf576040519150601f19603f3d011682016040523d82523d6000602084013e6137d4565b606091505b50915091506137e4828286613813565b92505050949350505050565b6000808273ffffffffffffffffffffffffffffffffffffffff163b119050919050565b6060831561382357829050613873565b6000835111156138365782518084602001fd5b816040517f08c379a000000000000000000000000000000000000000000000000000000000815260040161386a9190613a65565b60405180910390fd5b9392505050565b600073ffffffffffffffffffffffffffffffffffffffff82169050919050565b60006138a58261387a565b9050919050565b6138b58161389a565b82525050565b6000819050919050565b6138ce816138bb565b82525050565b60006040820190506138e960008301856138ac565b6138f660208301846138c5565b9392505050565b6000604051905090565b600080fd5b600080fd5b60007fffffffff0000000000000000000000000000000000000000000000000000000082169050919050565b61394681613911565b811461395157600080fd5b50565b6000813590506139638161393d565b92915050565b60006020828403121561397f5761397e613907565b5b600061398d84828501613954565b91505092915050565b60008115159050919050565b6139ab81613996565b82525050565b60006020820190506139c660008301846139a2565b92915050565b600081519050919050565b600082825260208201905092915050565b60005b83811015613a065780820151818401526020810190506139eb565b83811115613a15576000848401525b50505050565b6000601f19601f8301169050919050565b6000613a37826139cc565b613a4181856139d7565b9350613a518185602086016139e8565b613a5a81613a1b565b840191505092915050565b60006020820190508181036000830152613a7f8184613a2c565b905092915050565b613a90816138bb565b8114613a9b57600080fd5b50565b600081359050613aad81613a87565b92915050565b600060208284031215613ac957613ac8613907565b5b6000613ad784828501613a9e565b91505092915050565b6000602082019050613af560008301846138ac565b92915050565b613b048161389a565b8114613b0f57600080fd5b50565b600081359050613b2181613afb565b92915050565b60008060408385031215613b3e57613b3d613907565b5b6000613b4c85828601613b12565b9250506020613b5d85828601613a9e565b9150509250929050565b6000602082019050613b7c60008301846138c5565b92915050565b6000613b8d8261387a565b9050919050565b613b9d81613b82565b8114613ba857600080fd5b50565b600081359050613bba81613b94565b92915050565b600060208284031215613bd657613bd5613907565b5b6000613be484828501613bab565b91505092915050565b600080600060608486031215613c0657613c05613907565b5b6000613c1486828701613b12565b9350506020613c2586828701613b12565b9250506040613c3686828701613a9e565b9150509250925092565b600060208284031215613c5657613c55613907565b5b6000613c6484828501613b12565b91505092915050565b6000613c788261389a565b9050919050565b613c8881613c6d565b8114613c9357600080fd5b50565b600081359050613ca581613c7f565b92915050565b60008060408385031215613cc257613cc1613907565b5b6000613cd085828601613c96565b9250506020613ce185828601613b12565b9150509250929050565b600080fd5b600080fd5b7f4e487b7100000000000000000000000000000000000000000000000000000000600052604160045260246000fd5b613d2d82613a1b565b810181811067ffffffffffffffff82111715613d4c57613d4b613cf5565b5b80604052505050565b6000613d5f6138fd565b9050613d6b8282613d24565b919050565b600067ffffffffffffffff821115613d8b57613d8a613cf5565b5b613d9482613a1b565b9050602081019050919050565b82818337600083830152505050565b6000613dc3613dbe84613d70565b613d55565b905082815260208101848484011115613ddf57613dde613cf0565b5b613dea848285613da1565b509392505050565b600082601f830112613e0757613e06613ceb565b5b8135613e17848260208601613db0565b91505092915050565b600060208284031215613e3657613e35613907565b5b600082013567ffffffffffffffff811115613e5457613e5361390c565b5b613e6084828501613df2565b91505092915050565b613e7281613996565b8114613e7d57600080fd5b50565b600081359050613e8f81613e69565b92915050565b60008060408385031215613eac57613eab613907565b5b6000613eba85828601613b12565b9250506020613ecb85828601613e80565b9150509250929050565b600067ffffffffffffffff821115613ef057613eef613cf5565b5b613ef982613a1b565b9050602081019050919050565b6000613f19613f1484613ed5565b613d55565b905082815260208101848484011115613f3557613f34613cf0565b5b613f40848285613da1565b509392505050565b600082601f830112613f5d57613f5c613ceb565b5b8135613f6d848260208601613f06565b91505092915050565b60008060008060808587031215613f9057613f8f613907565b5b6000613f9e87828801613b12565b9450506020613faf87828801613b12565b9350506040613fc087828801613a9e565b925050606085013567ffffffffffffffff811115613fe157613fe061390c565b5b613fed87828801613f48565b91505092959194509250565b7f4e487b7100000000000000000000000000000000000000000000000000000000600052602160045260246000fd5b6004811061403957614038613ff9565b5b50565b600081905061404a82614028565b919050565b600061405a8261403c565b9050919050565b61406a8161404f565b82525050565b60006020820190506140856000830184614061565b92915050565b6000602082840312156140a1576140a0613907565b5b60006140af84828501613c96565b91505092915050565b600080604083850312156140cf576140ce613907565b5b60006140dd85828601613b12565b92505060206140ee85828601613b12565b9150509250929050565b7f4e487b7100000000000000000000000000000000000000000000000000000000600052602260045260246000fd5b6000600282049050600182168061413f57607f821691505b602082108103614152576141516140f8565b5b50919050565b7f5265656e7472616e637947756172643a207265656e7472616e742063616c6c00600082015250565b600061418e601f836139d7565b915061419982614158565b602082019050919050565b600060208201905081810360008301526141bd81614181565b9050919050565b7f4e487b7100000000000000000000000000000000000000000000000000000000600052601160045260246000fd5b60006141fe826138bb565b9150614209836138bb565b9250827fffffffffffffffffffffffffffffffffffffffffffffffffffffffffffffffff0382111561423e5761423d6141c4565b5b828201905092915050565b6000614254826138bb565b915061425f836138bb565b9250817fffffffffffffffffffffffffffffffffffffffffffffffffffffffffffffffff0483118215151615614298576142976141c4565b5b828202905092915050565b60006060820190506142b860008301866138ac565b6142c560208301856138ac565b6142d260408301846138c5565b949350505050565b6000815190506142e981613e69565b92915050565b60006020828403121561430557614304613907565b5b6000614313848285016142da565b91505092915050565b7f5061796d656e7453706c69747465723a206163636f756e7420686173206e6f2060008201527f7368617265730000000000000000000000000000000000000000000000000000602082015250565b60006143786026836139d7565b91506143838261431c565b604082019050919050565b600060208201905081810360008301526143a78161436b565b9050919050565b7f5061796d656e7453706c69747465723a206163636f756e74206973206e6f742060008201527f647565207061796d656e74000000000000000000000000000000000000000000602082015250565b600061440a602b836139d7565b9150614415826143ae565b604082019050919050565b60006020820190508181036000830152614439816143fd565b9050919050565b6000819050919050565b600061446561446061445b8461387a565b614440565b61387a565b9050919050565b60006144778261444a565b9050919050565b60006144898261446c565b9050919050565b6144998161447e565b82525050565b60006040820190506144b46000830185614490565b6144c160208301846138c5565b9392505050565b6000815190506144d781613a87565b92915050565b6000602082840312156144f3576144f2613907565b5b6000614501848285016144c8565b91505092915050565b7f4e487b7100000000000000000000000000000000000000000000000000000000600052603260045260246000fd5b60008190508160005260206000209050919050565b60006020601f8301049050919050565b600082821b905092915050565b60006008830261459b7fffffffffffffffffffffffffffffffffffffffffffffffffffffffffffffffff8261455e565b6145a5868361455e565b95508019841693508086168417925050509392505050565b60006145d86145d36145ce846138bb565b614440565b6138bb565b9050919050565b6000819050919050565b6145f2836145bd565b6146066145fe826145df565b84845461456b565b825550505050565b600090565b61461b61460e565b6146268184846145e9565b505050565b5b8181101561464a5761463f600082614613565b60018101905061462c565b5050565b601f82111561468f5761466081614539565b6146698461454e565b81016020851015614678578190505b61468c6146848561454e565b83018261462b565b50505b505050565b600082821c905092915050565b60006146b260001984600802614694565b1980831691505092915050565b60006146cb83836146a1565b9150826002028217905092915050565b6146e4826139cc565b67ffffffffffffffff8111156146fd576146fc613cf5565b5b6147078254614127565b61471282828561464e565b600060209050601f8311600181146147455760008415614733578287015190505b61473d85826146bf565b8655506147a5565b601f19841661475386614539565b60005b8281101561477b57848901518255600182019150602085019450602081019050614756565b868310156147985784890151614794601f8916826146a1565b8355505b6001600288020188555050505b505050505050565b600081905092915050565b60006147c3826139cc565b6147cd81856147ad565b93506147dd8185602086016139e8565b80840191505092915050565b600081546147f681614127565b61480081866147ad565b9450600182166000811461481b576001811461483057614863565b60ff1983168652811515820286019350614863565b61483985614539565b60005b8381101561485b5781548189015260018201915060208101905061483c565b838801955050505b50505092915050565b600061487882866147b8565b915061488482856147b8565b915061489082846147e9565b9150819050949350505050565b7f4f776e61626c653a206e6577206f776e657220697320746865207a65726f206160008201527f6464726573730000000000000000000000000000000000000000000000000000602082015250565b60006148f96026836139d7565b91506149048261489d565b604082019050919050565b60006020820190508181036000830152614928816148ec565b9050919050565b7f416464726573733a20696e73756666696369656e742062616c616e6365000000600082015250565b6000614965601d836139d7565b91506149708261492f565b602082019050919050565b6000602082019050818103600083015261499481614958565b9050919050565b600081905092915050565b50565b60006149b660008361499b565b91506149c1826149a6565b600082019050919050565b60006149d7826149a9565b9150819050919050565b7f416464726573733a20756e61626c6520746f2073656e642076616c75652c207260008201527f6563697069656e74206d61792068617665207265766572746564000000000000602082015250565b6000614a3d603a836139d7565b9150614a48826149e1565b604082019050919050565b60006020820190508181036000830152614a6c81614a30565b9050919050565b6000614a7e826138bb565b9150614a89836138bb565b925082821015614a9c57614a9b6141c4565b5b828203905092915050565b6000614ab2826138bb565b91507fffffffffffffffffffffffffffffffffffffffffffffffffffffffffffffffff8203614ae457614ae36141c4565b5b600182019050919050565b7f4f776e61626c653a2063616c6c6572206973206e6f7420746865206f776e6572600082015250565b6000614b256020836139d7565b9150614b3082614aef565b602082019050919050565b60006020820190508181036000830152614b5481614b18565b9050919050565b7f4e487b7100000000000000000000000000000000000000000000000000000000600052601260045260246000fd5b6000614b95826138bb565b9150614ba0836138bb565b925082614bb057614baf614b5b565b5b828204905092915050565b600081519050919050565b600082825260208201905092915050565b6000614be282614bbb565b614bec8185614bc6565b9350614bfc8185602086016139e8565b614c0581613a1b565b840191505092915050565b6000608082019050614c2560008301876138ac565b614c3260208301866138ac565b614c3f60408301856138c5565b8181036060830152614c518184614bd7565b905095945050505050565b600081519050614c6b8161393d565b92915050565b600060208284031215614c8757614c86613907565b5b6000614c9584828501614c5c565b91505092915050565b6000614ca9826138bb565b9150614cb4836138bb565b925082614cc457614cc3614b5b565b5b828206905092915050565b7f5361666545524332303a204552433230206f7065726174696f6e20646964206e60008201527f6f74207375636365656400000000000000000000000000000000000000000000602082015250565b6000614d2b602a836139d7565b9150614d3682614ccf565b604082019050919050565b60006020820190508181036000830152614d5a81614d1e565b9050919050565b7f416464726573733a20696e73756666696369656e742062616c616e636520666f60008201527f722063616c6c0000000000000000000000000000000000000000000000000000602082015250565b6000614dbd6026836139d7565b9150614dc882614d61565b604082019050919050565b60006020820190508181036000830152614dec81614db0565b9050919050565b7f416464726573733a2063616c6c20746f206e6f6e2d636f6e7472616374000000600082015250565b6000614e29601d836139d7565b9150614e3482614df3565b602082019050919050565b60006020820190508181036000830152614e5881614e1c565b9050919050565b6000614e6a82614bbb565b614e74818561499b565b9350614e848185602086016139e8565b80840191505092915050565b6000614e9c8284614e5f565b91508190509291505056fea26469706673582212201dbb1a934de37b2f3b94155cc925c0f8fe6dc4ef979ab7574ff3c7c91b1a470464736f6c634300080f0033",
  "linkReferences": {},
  "deployedLinkReferences": {}
}